:020000040800F2
:10000000902E002065270008417500085127000840
:100010005127000851270008512700080000000060
:100020000000000000000000000000000D28000893
:100030005127000800000000C5270008654C000893
:100040002529000825290008252900082529000858
:100050002529000825290008252900082529000848
:100060002529000825290008252900082529000838
:100070002529000825290008252900082529000828
:100080002529000825290008252900082529000818
:100090002529000825290008252900082529000808
:1000A00025290008252900082529000825290008F8
:1000B00025290008252900082529000825290008E8
:1000C00025290008252900082529000825290008D8
:1000D00025290008252900082529000825290008C8
:1000E00025290008252900082529000825290008B8
:1000F00025290008252900082529000825290008A8
:100100002529000825290008252900082529000897
:100110002529000825290008252900082529000887
:100120002529000825290008252900082529000877
:10013000844641EA000313F0030349D1403A23D334
:100140000B6803604B6843608B688360CB68C36057
:100150000B6903614B6943618B698361CB69C3613F
:100160000B6A03624B6A43628B6A8362CB6AC36227
:100170000B6B03634B6B43638B6B8363CB6BC3630F
:1001800040304031403ADBD230320BD30B68036051
:100190004B6843608B688360CB68C360103010315C
:1001A000103AF3D20C3205D351F8043B40F8043B2B
:1001B000043AF9D2043208D0D2071CBF11F8013B2F
:1001C00000F8013B01D30B8803806046704700BFF5
:1001D000082A13D38B07B1D010F00303AED0C3F1BC
:1001E0000403D21ADB071CBF11F8013B00F8013BE6
:1001F000A4D331F8023B20F8023B9FE7043AD9D35D
:10020000013A11F8013B00F8013BF9D20B78037079
:100210004B7843708B7883706046704753B94AB906
:10022000002908BF00281CBF4FF0FF314FF0FF30FE
:1002300000F00CB8ADF1080C6DE904CE00F008F840
:10024000DDF804E0DDE9022304B07047704700BF29
:100250002DE9F04786468C460846154674461946F1
:10026000089E002B40F0C2808542B2FA82F245D946
:100270004AB1C2F1200300FA02FC2EFA03F39540C2
:1002800043EA0C0C94404FEA154EBCFBFEF8A8B2B2
:100290000EFB18CC08FB00F9230C43EA0C439945EC
:1002A00028D9EB1808F1FF3704D2994502D9A8F1F3
:1002B00002072B44A3EB0903B3FBFEFC0EFB1C332C
:1002C0000CFB00F0A4B244EA0344A04214D92C1958
:1002D0000CF1FF3304D2A04202D9ACF102032C444A
:1002E000241A43EA07401EB10023D44034607360EF
:1002F000BDE8F0874746DDE76346F1E792BB0121A1
:10030000431B4FEA154EB3FBFEFCAFB20EFB1C3392
:100310000CFB07F8200C40EA0343984562D9EB1820
:100320000CF1FF3004D2984502D9ACF102002B4405
:10033000A3EB0803B3FBFEFC0EFB1C330CFB07F71F
:10034000A4B244EA0344A7424ED92C190CF1FF335E
:1003500004D2A74202D9ACF102032C44E41B43EAC5
:100360000040C0E7C2F12003954020FA03F12EFAC5
:1003700003F34FEA154EB1FBFEFC90400343AFB2CE
:100380000EFB1C100CFB07F8190C41EA00418845D4
:1003900004FA02F422D969180CF1FF3004D288451E
:1003A00002D9ACF102002944A1EB0801B1FBFEFC2B
:1003B0000EFB1C110CFB07F79BB243EA01439F4263
:1003C0000ED9EB180CF1FF3104D29F4202D9ACF1E7
:1003D00002012B44DB1B41EA004192E76046E3E760
:1003E0006146F7E76046A3E76346B7E7834206D96D
:1003F00016B9002108467BE7C6E900E0F9E7B3FA41
:1004000083F78FB9834201D3724508D8BEEB02044B
:1004100060EB030301209C461EB9002168E73846C3
:10042000FAE7C6E9004CF8E7C7F1200CBB4022FA16
:100430000CF41C434FEA144920FA0CF3B3FBF9F80F
:10044000B8402EFA0CF101430EFA07F509FB1830FB
:100450001FFA84FE08FB0EFA0B0C43EA00439A4590
:1004600002FA07F240D9E31808F1FF3004D29A45A6
:1004700002D9A8F102002344A3EB0A03B3FBF9F865
:1004800009FB183308FB0EFE89B241EA03418E4591
:100490002CD9611808F1FF3304D28E4502D9A8F196
:1004A0000203214443EA0040A0FB0298A1EB0E01A5
:1004B0004145CE46434602D306D14D4504D2B9EB61
:1004C000020E68EB04030138002EA6D0B5EB0E0235
:1004D00061EB030101FA0CFC22FA07F34CEA030377
:1004E000F940C6E9003198E74046C5E74346D9E7F9
:1004F00008B5094E094D0A4C304606F056F906F08B
:100500005CF9284606F051F906F057F9204606F046
:100510004CF906F052F9EFE7E48F0008DC8F000891
:10052000D48F000810B588B01B4807F09EFF38B97B
:100530001A4806F01BFB6FF01204204608B010BDED
:10054000154807F092FF0028F2D0134807F08DFFFE
:100550000028EDD0124806F00EF9124806F00BF90B
:10056000114806F008F9044620B101460F4806F08C
:10057000FDFAE2E700220023CDE906230523CDE9B9
:100580000000CDE9020304904FF40072084B0949C2
:10059000094805F02DFAD0E7D08A0008E094000859
:1005A000E48F0008DC8F0008D48F0008F99400085D
:1005B000F1040008900C00202802002070B5274D9F
:1005C00086B0286807F051FF28B9254806B0BDE875
:1005D000704006F0CBBA234C204607F046FF08B91E
:1005E0002148F3E72269A1681368204623F0080335
:1005F00013600B681D4A03219847286883685B686D
:1006000003B1984746F67810194BCDE903038723C9
:10061000ADF8143005F0F6FF044620B9154806F091
:10062000A5FA06B070BD0023411CF826184643F217
:10063000BC4204F8136001F8130001339342F8D16F
:10064000002228681146836800949D6803ABA84780
:10065000204608F03CF90848E1E700BF0000002010
:100660001F950008F08A00083A95000820000A004B
:1006700087006400579500087695000830B5054658
:1006800046F67810144B87B0CDE903038723ADF805
:10069000143005F0B7FF044620B9104806F066FA9A
:1006A00007B030BD002343F2BC42280A611C04F8A5
:1006B000130001F8135001339342F8D10022084B84
:1006C00011461868836800949D6803ABA8472046CC
:1006D00008F0FDF8E4E700BF8700640057950008C4
:1006E0000000002010B5FFF71DFF044678B90B4845
:1006F00006F03CFAFFF762FF0134A4B22046FFF790
:10070000BDFF00214FF47A7008F012F8F4E70146BB
:10071000034806F02BFA204610BD00BFAD95000837
:100720008E9500082DE9F04F91B0009302F004037C
:100730000293C2F3C2030133840705460E46DDF877
:1007400068800392059340F0BB81041D30B10729F6
:1007500009D86FF01B0011B0BDE8F08F01F007065B
:100760003444C6F10806009B4FF000094FF0040A1C
:10077000591E4FF0FF334F460193CB465346CDF8F9
:1007800010900DB1009A22600598002800F3E880CF
:100790009848009A824203D397488242C0F0E08092
:1007A000039AA4EB050E92074FEA9E0000F1038125
:1007B0000F2F00F2B180002D00F0058107F14002FB
:1007C0000DEB020C019A0CF8200C0CF8102C04987C
:1007D00001300490E7E07A285DD84B280ED84728EE
:1007E00059D829282DD8252852D054D820287AD055
:1007F0002338D0F1000B4BEB000B74E04C382E2863
:1008000049D8DFE800F07048484848484848484818
:1008100048484B484848484848484859484B4B592D
:100820005959704B6D487048184B184848827F4B97
:1008300048484B487F0000204FF0000B4FF0040A5F
:1008400038E001222A38C0B202FA00F010EA0E0F96
:1008500049D110F0625C2FD110EA020B43D0604600
:10086000013C5444B4FBFAF40AFB04F4002D61D0BB
:10087000A3EB050CA444B4453FF66BAF002868D148
:10088000042B47D158F8043B2360042304342AE0A6
:10089000019A013A01924FF0000B24E011F8010C8B
:1008A0006C2834D1002011F8023C83466C2BC5D152
:1008B0004FF0080A5346D3E708F1070828F0070865
:1008C000073424F00704F8E802AB35B10698204459
:1008D000B0423FF63EAFC4E900AB4FF0000B083426
:1008E0004FF0080A534611F8010F002878D0BBF1E9
:1008F000000F7FF470AF2528F5D14FF0010B019B5D
:10090000013301934FF0040AECE7584694E70020C6
:100910008346A5E7082B02D06FF015001BE708F10E
:10092000070828F00708F8E80223C4E90023082391
:100930000834D8E768B9042B02D108F10408A4E709
:10094000082BE9D108F1070828F0070808F1080882
:10095000EDE7059A013A059258F8042B009210E74A
:10096000039A900720D54FF0010CA4EB050E4FEA37
:100970009E00BEF5007FCFD20F2FCDD8F5B107F185
:1009800040020DEB020E019AC0B20EF8200C0EF8D8
:10099000102CBCF1000F3FF41AAF60F07F000EF88E
:1009A000200C09F101090137C5F108024FF6DA7E82
:1009B0000434069297E74FF0000CDAE7BCF1000F21
:1009C00001D00136EFE7029802360028EBD10098FB
:1009D000CDE9063105F08EFEDDE906310644E2E799
:1009E000631BB3F5806F97D245B9A6F10804E018F0
:1009F000B1E600BF30890008A4A40008029A9B0851
:100A000028602B709DF81030C2B1EB7085F8029011
:100A1000B9F1000F05D0002208A8C5F1010C9742DA
:100A20000ED14FF0000AC5F101030DF1200801932A
:100A30000DF1300B574512D1601B8CE66B70E5E76A
:100A400010F8013B190608D50CEB040EB64503F06F
:100A50007F033FF67EAE04F8013B0132DFE7B9F1D8
:100A6000000F03D098F90020002A17DB029BD3B1B6
:100A70001AF80B2004F8012B0022019B18191044CE
:100A8000B0423FF666AE98F80000009904F8010BFA
:100A900020460392FFF74CFB039A14440AF1010A23
:100AA00008F10108C6E798F8002055F822300093B5
:100AB000029B009845F8223005F01CFE421CDCE742
:100AC0006FF00D0047E600BF2DE9F04F97B000AF83
:100AD000D7F880B07B62CBF3C0030446894690F818
:100AE00002A0FA62BB6141B9457800780AEB800048
:100AF00020444D4517D8A0EB0409E378FB61BAF117
:100B0000000F02D01BF0010F16D1FB6953BBFB6A2B
:100B10001BB1494620467A6A98474D4628465C37BD
:100B2000BD46BDE8F08F461C304605F0E3FD0130C0
:100B3000304409F10109DCE762682378BA62FA6A95
:100B40009900796104EB8301002A40F001810E468F
:100B50004FF000084D4601EB0A094E454CD101EB20
:100B60000A0610E01BF0020FD1D023789A007A61B8
:100B7000626804EB8301BA62FA6A002A77D14D46B3
:100B8000904601EB0A061BF0050F0CBF0223012360
:100B9000FB62FB6906EB430A0BF002037B625645DE
:100BA000BCD016F8021B16F8013C54F823909A4B5F
:100BB000994502D3994B994536D3BB69002B40D058
:100BC000B86A05F09AFF00283BD0E9468AB06A4629
:100BD000934B5361BB6AC2E906314FF4007313842F
:100BE000904B42F8103F00234FF412518E4801F011
:100BF00041F8023DCD46D2E716F8013BF96254F8C0
:100C0000230005F077FDD7F88430F96A01304BB145
:100C1000D7F8883098453EBFD7F8843023F81800BD
:100C200008F10108054498E7BB6923B1B86A05F0EB
:100C300064FF0028C9D11BF0010F05D1FB6AED1A32
:100C4000ADE77B6A002BAAD0484605F053FDD7F8E4
:100C5000843053B1D7F8883098453FBFD7F8842007
:100C6000431C22F8183008F10108054497E7BAF14F
:100C7000000F73D01BF0040673D0D046002607F196
:100C8000480052463B613962FFF752FA396A3B69C4
:100C900001EB0A023A62FA695200FA60D7E90712D8
:100CA00002EB41023A610BF00202BA603A69396A1A
:100CB0008A4258D162781BF0020F18BF0021BA6235
:100CC00008BF4FEA5801B2181BF0010FD2B240F032
:100CD000A1801BF0040F14BF40460020BB6162706E
:100CE000A070E17020467A6A7969FB6A9847051E10
:100CF000FFF614AFBB6941462370BB6A7A6A637022
:100D0000FB6984F802A0E37007F14800FB6A98478A
:100D1000B0F10008C0F2BC807B69A9EB0A01C91AD6
:100D2000FB687A6AC91A386AFB6A98470028C0F2D9
:100D3000B1804FF0000BA84408EB000507F1380A1A
:100D4000B34573D300217A6A0846FB6A9847E5E603
:100D500056464FF0000807F1380092E75646D04655
:100D600096E7B04694E73A6A12F8021B12F8015C63
:100D70003A6254F82500284A904202D3274A90420A
:100D800020D3BA6932B1B86A7B6005F0B6FE7B68E1
:100D900000288BD1BA6812BB08F1280208F10100C3
:100DA00007F1300CC0B294440CF8101C00F128027A
:100DB00007F1300108F1020850185FFA88F800F8CE
:100DC000105C73E7BA693AB1B86A7B6005F095FECA
:100DD0007B6800287FF46AAF1BF0010F09D006F191
:100DE000280207F13000711C161806F8205CCEB2FC
:100DF0005CE71BF0040F3FF459AF08F1280207F13C
:100E0000300008F1010102EB000808F8105C5FFAFD
:100E100081F84BE7002061E730890008A4A40008AE
:100E2000C3950008040000011C8F00081BF80A305D
:100E300054F8239087F83730D7F884302BB3D7F89D
:100E400088309B4521D2D7F8843033F81B800121AC
:100E50007A6AFB6A07F13700984700281ADB0544D5
:100E6000B8F1000F06D1484605F044FC00F1010836
:100E70001FFA88F8414648467A6AFB6A9847002874
:100E800008DB05440BF1010B5AE74FF00008DEE7E1
:100E9000454643E6054641E6014B1860704700BFF2
:100EA0000400002030B5002587B0CDE903010446D9
:100EB000009503A90548059500F06EF8DDE90430BA
:100EC0009842B8BF255407B030BD00BF496B000839
:100ED000F0B5024601680A270020074E0B461C7831
:100EE0000131355D6D0701D41360F0BD07FB004390
:100EF000A3F13000F2E700BFD99300082DE9F84FC5
:100F000015469A46D378234A6F2B12F803B08146D0
:100F10000F460BF0030B2BD026D8582B0CBF1026F6
:100F20000A26DDF828803246002348463946FFF776
:100F300075F9092A08F1FF38D4B21ED83034B1450A
:100F4000E4B277F1000788F8004001D3D04511D80A
:100F50002B789B0605D5082E15D1AB7843F00803F6
:100F6000AB704046BDE8F88F03F0F703702BD5E770
:100F70000826D6E781460F46D5E7BBF1010F0CBF27
:100F800037345734DBE7102EEBD1AB7843F0100346
:100F9000E6E700BFD99300082DE9F04F8A461646D0
:100FA0001C46002597B00390307808B9284655E3D1
:100FB00025280AD05146039B98470028C0F24E834B
:100FC000731C01350493049EEEE71822002110A83B
:100FD00005F040FB7378252B00F0A3800023984692
:100FE0009E469C461846711C0F4611F8012B2B2A71
:100FF00000F0C68000F2BD80202A00F0C480232AC1
:1010000000F0C4802BB19DF8483043F040038DF8C8
:101010004830B8F1000F05D09DF8483043F0200368
:101020008DF84830BEF1000F05D09DF8483043F0F0
:1010300010038DF84830BCF1000F05D09DF8483002
:1010400043F008038DF8483028B19DF8483043F04C
:1010500004038DF848309DF8483003F044014429DA
:1010600003D16FF386138DF848309DF848302A2A53
:1010700043F0800309978DF8483040F08C809DF84C
:10108000493043F001038DF849307B1C1A782E2A31
:101090000CBF012100219DF8492061F341028DF828
:1010A00049200CD15A1C09925A782A2A40F0838090
:1010B0009DF84920023342F004028DF849201A7845
:1010C0006C2A00F0A48000F28680682A00F08C80F0
:1010D0006A2A00F0A5804C2A00F0AA801A4612F86D
:1010E000013B782B04928DF84B309DF8492000F29B
:1010F00017816D2B00F2A980692B00F21181572B0B
:1011000000F2BE80412B03D0453B022B00F2088148
:1011100004229DF84A3062F302038DF84A3001231D
:10112000CAE08DF84B30B31C04939DF84930D907C1
:1011300040F1FD8054F8048BB8F1000F07DA9DF8F8
:101140004820C8F1000842F004028DF848205A07F0
:1011500040F1F68054F804BBBBF1000F80F2F5803B
:101160009DF849306FF341038DF849304FF0FF3B54
:10117000EBE02D2A0DD0302A7FF444AF012333E772
:101180004FF0010C30E74FF0010E2DE74FF0010852
:101190002AE7012028E709A8FFF79AFE099BBB422E
:1011A0003FF474AF9DF848201390C00F60F34102E4
:1011B0008DF848206AE709A8FFF78AFE9DF84830B5
:1011C0001490C3F3400242EAD07262F341038DF8F7
:1011D0004830099B73E7742A26D07A2A7FF47EAFC1
:1011E00006219DF849200CE05A78682A9DF849208C
:1011F00006D1012161F3C6028DF8492002336DE763
:10120000022161F3C6028DF84920013366E75A785E
:101210006C2A9DF8492001D10421EBE70321F0E776
:1012200005219DF84920ECE707219DF84920E8E7D2
:10123000BDF8482022F4F04222F0020242F480423B
:1012400042F00202ADF84820DFE76E3BD9B201233D
:101250008B4040F282410B4238D113F0240F52D11F
:10126000DF075DD503219DF84A3061F302038DF855
:101270004A3002F07803A3F14000434243411BE0AF
:101280000120A3F15801C9B200FA01F111F4624F33
:101290007FF43EAF40F6010739421DD111F4043FFF
:1012A0003ED09DF84A3060F3020302F07802402AF3
:1012B0008DF84A3034D000239DF84820C2F3400115
:1012C0000B4363F341028DF848202EE702219DF87D
:1012D0004A3061F30203E8E702209DF84A1002F069
:1012E000780260F30201402A8DF84A1002BF9DF88F
:1012F000481041F001018DF84810632BDBD1131E1B
:1013000018BF0123D8E703219DF84A3012F0780F67
:1013100061F302038DF84A3014BF01230023CBE7A9
:101320009DF8483043F001038DF84830C3E79DF93C
:101330004820002AACBF4FF0FF38DDF84C8006E7AC
:101340009F077FF513AFDDF850B00023CDE91333CD
:101350009DF84A309DF8491003F00703012BC1F3B3
:10136000C30132D1CB1E042B04D8DFE803F02045A3
:1013700045202000236801294FEAE372CDE91032AD
:101380001BD19DF94030DA17CDE9103204349DF8B5
:10139000483013F003074FD032465146049B039860
:1013A00005F008FC0028C0F2598105440BE654F80A
:1013B000043BDA17CDE91032E9E70229E6D11AB287
:1013C00043F3C033CDE91023E0E7022B24D1CB1E39
:1013D000042B04D8DFE803F01810101818000129B6
:1013E0004FF0000254F8043B14D00229CDE910322A
:1013F000CDD19BB21093CAE7073424F00704F4E878
:101400000223CDE91023C2E754F8043B10930023D4
:101410001193BCE7DBB2CDE7042B08D1073424F0ED
:101420000704D4E900230834CDE91023AFE7032BE8
:10143000ADD154F8043BDDE79DF84B0078283FF62A
:10144000C2AD62281ED8252850D058287FF4BBADE5
:10145000DDE910010DF13E03009312AA0AABFFF77C
:101460004DFDBBF1000F814680F2C180B9F1000F44
:101470003FF4A9AD0DF13E06A6EB0903002F7BD08A
:10148000013379E0633815283FF69DAD01A252F88B
:1014900020F000BF67150008C5150008C70F000839
:1014A000C70F0008C70F0008C70F0008C5150008C0
:1014B000C70F0008C70F0008C70F0008C70F0008B4
:1014C00011160008E915000825150008C70F0008C7
:1014D000C70F0008FD140008C70F0008E915000831
:1014E000C70F0008C70F0008E91500085146039B05
:1014F00098470028C0F2B280013564E5BBF1000FC7
:10150000DDF840900ADB5946484605F021F9B9F16B
:10151000000F3FF458AD09EB000620E0484605F007
:10152000E9F8F8E71098002800F086800DF13E06F3
:101530000AAB0021009612AAFFF7E0FCBDF84A3082
:10154000BBF1000F03F0EF0343F4F04343F010034B
:101550008146ADF84A3049DA00283FF434AD00271F
:10156000A6EB090308E0109B00278DF82830012323
:101570000DF129060DF128099DF84A1011F010020D
:1015800006925FD00233139A134405924A0644BF71
:1015900014995B18B8F1000F6DDDA8EB03089DF8F6
:1015A00048305807C3F3800B65D4590659D53FB16D
:1015B00051463846039B984700284FDB5F4601356C
:1015C00030234FE01E075ABFC3F300135F012B27E0
:1015D000DDE91023002BBFF63BAF524263EB430320
:1015E0002D27CDE9102333E7002731E700279DF8A9
:1015F00048100DF13E03A3EB09036FF386119B45E1
:101600008DF848107FF632AFABEB030313932DE751
:10161000109B07293FF6D7ACDFE801F00C04060C5D
:1016200008080C0C1D70CEE41D80CCE4EA17C3E959
:101630000052C8E41D60C6E4304E07460523A6F1FB
:10164000050999E7080748BF01339CE71846079347
:101650005146039B98470028079B04DA17B0BDE862
:10166000F08F2023C346594600290BF1FF3BEDDCE8
:101670004544D8466D1A37B151463846039B9847C2
:101680000028EBDB01359DF84A30DA0601D41B0750
:1016900006D551463020039B98470028DEDB0135F4
:1016A000069B3BB151469DF84B00039B9847002891
:1016B000D4DB0135059F2F4406E051463020039BC3
:1016C00098470028CADB01357B1B002BF5DC33462D
:1016D0004A465146039805F06DFA0028BEDB0544E2
:1016E000A844A8EB0503002B7FF76DAC51462020E2
:1016F000039B98470028B1DB0135F2E77C96000890
:10170000074B00205A6822F001025A605A6822F002
:1017100002025A605A6822F004025A60704700BF01
:10172000002004E0044A136843F010031360034BE5
:10173000034A1A60704700BF002002402C010020BD
:1017400000127A002DE9F047044607464FF00109E0
:10175000DFF8508014B93846BDE8F08794FAA4F554
:10176000B5FA85F509FA05F32E0108EB05156FEAC0
:10177000030A24EA03042B7B002BEBD058F8063035
:101780001B694BB94644736804222846196807EA66
:101790000A0705F0CDFCDDE7284698470028D9D197
:1017A000F0E700BFA48F000830B5002289B00F49D0
:1017B0000F4807F04CF8002200230024CDE906234F
:1017C0000E230C4DCDE903344FF440722846CDE989
:1017D0000144094B0949009404F00AF908492846D4
:1017E00006F0F5FE204609B030BD00BF0518000820
:1017F0001007002098020020211B0008900E0020F6
:1018000091960008014803F0B3BE00BFF801002024
:101810002DE9F047804620480F4605F061FC06465A
:10182000002832D000252846BDE8F087237B83B10D
:101830002368DB680BB120469847636883F80690FD
:1018400023681B69CBB9636804222046196805F038
:101850006FFC013610345445E8D3B8F1000FE2D0E4
:10186000002DDFD02846FFF76DFF0546002FF7D08B
:101870000021642006F05CFFF2E72046984700282C
:10188000E1D009FA06F31D43E3E705464FF00109ED
:10189000024CDFF80CA0DEE7200A0020A48F00082D
:1018A000B48F0008014B53F82000704700900008E7
:1018B00008B5034608462BB1044A136000F074FCD7
:1018C000002008BD6FF01500FBE700BF08000020F6
:1018D00010B5044C237813B9034803F049FE0123E3
:1018E000237010BD800C0020F801002010B50446C4
:1018F0000B4805F0F5FB5CB1BFF35B8F094B53E878
:10190000001F013943E80012002AF8D1BFF35B8FB2
:10191000054806F0A8FFBDE81040044803F028BEC3
:10192000180A00201C0A002010070020F8010020DF
:101930000020BFF35B8F0146044B53E8000F43E8E0
:101940000012002AF9D1BFF35B8F7047180A0020FC
:1019500070B5FFF7EDFF0546074C084EB44200D3C3
:1019600070BD63685B792BB123685B6813B129464E
:10197000204698471034F1E7A48F0008B48F000880
:1019800010B5044C0449204605F030FA034B1C60A6
:1019900010BD00BF74010020EC8F0008100A002069
:1019A00000230D4A10B513700C4A4FF47A7113607E
:1019B0000B4A0C481360FFF77BFFFFF7E1FF0A4B70
:1019C0000A4918468B4200D310BD1A1A5C681211DE
:1019D000013222711033F5E7810C0020180A002033
:1019E0001C0A0020FB700008A48F0008B48F0008B8
:1019F000014600220023014805F019BA74010020B5
:101A0000014805F0B2BA00BF74010020024B014644
:101A1000186805F0FEBA00BF100A0020014805F062
:101A200033BB00BF7401002070B5264B1878002826
:101A300046D0FFF7E5FF054600283ED1224B234C58
:101A40001B68002B12DD06F000FF0A220023FEF7C0
:101A5000E5FBD4E90032C01A40F2E93361EB020140
:101A6000984271F1000101D3FFF772FFD4E900320F
:101A700013F57A7342F10002C4E90032BDE8704008
:101A8000FFF7CCBF63685B7923B123682946204602
:101A90001B6898471034B442F4D32846FFF7B6FFCA
:101AA000BFF35B8F0A4B53E8001F013943E8001274
:101AB000002AF8D1BFF35B8FC0E7064C064EEAE779
:101AC00070BD00BF800C0020180A0020080700200D
:101AD0001C0A0020A48F0008B48F000870B50D4DBB
:101AE000297861B90120FFF793FE0B4C0B4EB442ED
:101AF00006D3FFF799FF0028FBD101232B7070BD9F
:101B000063685B791BB1236820469B689847103453
:101B1000EDE700BF810C0020A48F0008B48F0008FF
:101B200000212DE9F0470846FFF772FE044648B34E
:101B30004FF4FA784FF0000904F01AFA1A4B1860C3
:101B400030B11A4B1B68092B02DD194803F010FD58
:101B50000025184FDFF858A044B12046FFF7F2FDEA
:101B6000044618B94FF0FF384FF0FF39FFF75CFF1C
:101B7000064628B9B5B942464B46504603F02CFDFF
:101B80003546E9E74FF0FF384FF0FF39D4E72B68CF
:101B90009B691BB100222846114698471035BD426B
:101BA000F5D3E8E7044DFAE7140A00201C0A0020E8
:101BB000F8010020B48F0008A48F000813B518485E
:101BC00005F08EFA174B1B7873B1EFF311841023D5
:101BD00083F31288BFF36F8FFFF726FF84F311881A
:101BE000BFF36F8F02B010BD0F4B1B68002BF9D0F5
:101BF00050B9002200230D48CDE9002342F21072B3
:101C0000002304F0C7FCEDE70928EBD1074806F0F4
:101C10002AFE074802B0BDE8104003F0A9BC00BF8F
:101C20001C0A0020810C0020140A0020100700204C
:101C3000F801002010B5064B04461B689847214662
:101C4000A060044805F072F9BDE81040FFF7B6BF88
:101C50000800002074010020044A054B9B1AB1EBD8
:101C6000D30F34BF52F8310000207047148F0008A2
:101C7000A48F00082DE9F04F8FB0C1F34A2804AFBC
:101C80000D469146B8607B600C0DB8F1000F63D033
:101C900000264FF0040B4FF00A0A07F11403C7F8AF
:101CA0000C80C7E907667E620193CDF808B0CDF8D5
:101CB00000A007F11C0332464846F968FEF704FF0E
:101CC000B0F5006F03461CD36C468AB0D9F80410F7
:101CD00004AB26481A46C3E9050140F2FF71D961F9
:101CE0004FF400711984224B42F8103F4FF4125107
:101CF00033462048FFF7BEFFA5462C37BD46BDE85A
:101D0000F08FC0F30A0804F11700184420F0070010
:101D100080083B60FFF76CFE68F35325044690B1E2
:101D20003B6800F11001C7E9083607F11403F961B7
:101D3000CDE900A3CDF808B048460F4AF96807F18D
:101D40001C03FEF7C1FE68F353252A4620467B6834
:101D5000B96805F00DFAD0E704F1170020F007008C
:101D60008008FFF745FE0446EDE700BFA696000891
:101D7000040000015C8F0008437100082DE9F04F5A
:101D800087B00446DDE9105ADDE91279934698469A
:101D90000391BFB13B46524610210020CDF8009080
:101DA000CDF81490FEF7BEFCB0F5006F06460AD3DE
:101DB00040F2FF730221174A174807B0BDE8F04F01
:101DC00005F02FBA3E4605F11700304420F0070019
:101DD0008008FFF70DFE04F007040BF0070BE4008A
:101DE00044EA8B1444EA462444EA0554054640B1CB
:101DF0003FB13B4652463146CDF800901030FEF7D9
:101E000091FC434622462846039907B0BDE8F04FAF
:101E100005F0AEB9E59600085C8F0008406820B177
:101E2000034BC01A40F3CF0070474FF0FF307047AC
:101E3000148F00080EB403B503AB53F8042B01460E
:101E40000448019305F01DFA02B05DF804EB03B0FD
:101E5000704700BF91720008CA0605D48B064CBFBC
:101E600002490349FFF7E6BF704700BF1E9700080D
:101E70001D9700082DE9F04F89B09A46149B9DF8F4
:101E80004CB00693159B04460593169B0D46904651
:101E9000179E0493BBF1000F00F09D8006F4807341
:101EA000079305F043F906F00209024600283ED0E8
:101EB00020469249FFF7BEFF0746B9F1000F08D050
:101EC00016F0440F35D12A4620468D49FFF7B2FF60
:101ED000074406F0010353B18A4B204653F82B20E8
:101EE000894B8A49002A08BF1A46FFF7A3FF06F468
:101EF0008073002B49D006F00803002B63D1B8F1A2
:101F0000000F66D0424620468149FFF793FF054601
:101F1000069B3D44002B6DD1049B002B73D1F3072E
:101F200000F1E58031462046FFF796FFD9E00746ED
:101F3000C3E7784B18680028CAD0774B4FF47A79FA
:101F40001B684FF03C0CB5FBF3F5B5FBF0F14FF41B
:101F5000616300FB115509FB05F5B1FBF3F2B5FB1D
:101F6000F0FE03FB121100FB1E55B1FBFCF309FB55
:101F700005F5B5FBF0F50CFB131120460091CDE9FA
:101F800001E56649FFF756FFA2E706F00803EBB14B
:101F9000634B204653F82B206249FFF74BFF054661
:101FA000B8F1000F05D0424620465949FFF742FFDD
:101FB0000544BAF1000FABD0524620465A49FFF70C
:101FC00039FF0544A4E74FF0000AE1E706F00805F1
:101FD000E6E745469CE7BAF1010F069B06D1002BC8
:101FE00065D1049B002B7CD000250CE0002BF8D0A1
:101FF0004E485DE04E48069B22464E4904F04CFD9B
:10200000049B002B69D0DFF83081DFF83091049F0A
:102010003146102F204628BF10274FF0000AFFF747
:102020001BFF554546DC059B494620461A78FFF7BD
:1020300001FF4FF0010A1AF0070F03D14146204675
:10204000FFF7F8FE57453CD9059B4946204613F853
:102050000A20FFF7EFFE0AF1010ABAF1100FEAD1E8
:102060004FF0000A20463649FFF7E4FE5246059B32
:1020700020469A5C334B995C11F0970F08BF2E22D3
:102080003149FFF7D7FE0AF1010ABAF1100F1DD04E
:102090001AF0070F03D141462046FFF7CBFE574504
:1020A0005246E4D841462046FFF7C4FEEBE72048FD
:1020B0005D46A0E741462046FFF7BCFE0AF1010A53
:1020C000AFE720462149FFF7B5FEC4E7059B3B4437
:1020D0000593049BDB1B049399D1BBF1000F7FF4A4
:1020E0001EAF204609B0BDE8F04F05F0BEB820464F
:1020F000054A0649FFF79EFE14E700BF2597000832
:102100002997000810900008209700084E970008B3
:1021100051970008280A0020240A0020329700085E
:1021200024900008559700085B970008C7720008C4
:102130009172000883720008689700086097000891
:102140006A970008D99300086C9700086697000802
:1021500042F20F7373B58B4228BF0B4605680446E5
:10216000052168460D4A04F00EFD064663682846C0
:102170000B225B680A4905F06AF8636832466946D3
:1021800028465B6805F063F863681B2228465B6895
:10219000044905F05CF802B070BD00BFAC9E0008B9
:1021A0008B9700086F97000800210123064A904290
:1021B00006D8064A01B901231360054B1860704721
:1021C000012140085B00F2E740420F00240A002092
:1021D000280A0020F8B50D460446064F4618B442BA
:1021E00001D12846F8BD14F8011BBB6801485B68A3
:1021F0009847F4E7508B000870B545680669286871
:1022000006F033F940B90121194A1A4805F000F8DF
:102210006FF01204204670BD686890B12C1D06F066
:1022200024F90028F4D020464FF4003105F0C7F817
:10223000041E06DA2346104A01210E4804F0F1FF7D
:10224000E8E7E86870B10C3506F00FF90028DFD038
:102250004FF4B011284605F0B2F8041E02DA074A1E
:102260002346E9E7304606F04EF90024D2E700BFE6
:10227000D1970008748F0008E997000814980008A7
:102280002DE9F04706460C4600AF002935D006C9B7
:10229000E9468AB06D46A3684FF0050AA8461F4874
:1022A000C5E90723C5E9050148F810AF00234246F8
:1022B0004FF421511A48FFF7DDFCD4E90312CD4653
:1022C0006369AD461748C5E90723C5E90501C5F8A7
:1022D00010A0002342464FF421511148FFF7CAFCD9
:1022E000CD46E3690121104A0D4804F09AFFA36925
:1022F00001210E4A0A4804F094FF012E07D1EFF3A2
:1023000005830B4A31460648103B04F08AFF2146FC
:10231000304602F00BFEBD46BDE8F0874E9800083F
:102320007C8F00087D980008AC980008BB980008D6
:10233000E998000830BFFFF7FDBF00BF054B5A69A1
:102340009B689A421FBF044A536843F0805353600E
:10235000704700BF4C0C002000ED00E070B5224C2F
:1023600006460D462148224905F0F1F8A36AD90630
:1023700038D51E481F4905F0EAF81120A36A1A074C
:1023800004D51A481C4905F0E2F81220164CA36A3D
:102390009B0712D51949154805F0D9F8636BA26A55
:1023A000110609D50121164A104804F03AFF1EB162
:1023B000A36A23F08003A36213200B4CA36ADA07FD
:1023C00004D50A480F4905F0C2F81420A36A064A4A
:1023D000DB0658BFA36A936A43F0FF0393620023AE
:1023E0002B7070BD1020C9E700ED00E07C8F000865
:1023F000FC980008129900084599000858990008AF
:10240000709900088699000810B5204C2049214891
:1024100005F09DF8A36A990136D51E481E4905F0BE
:1024200096F81E20A36ADA0104D51A481B4905F064
:102430008EF81F20154CA36A1B0304D515481849B4
:1024400005F085F82120A36A590304D511481549E0
:1024500005F07DF822200D4CA36A9A0304D50D489F
:10246000114905F074F82320A36ADB0304D5094859
:102470000E4905F06CF82420044A936A6FEA03437E
:102480006FEA1343936210BD1D20CBE700ED00E01F
:10249000A59900087C8F0008BD990008D099000814
:1024A000EA990008089A00082D9A0008479A00083F
:1024B00070B5244C06460D462348244905F047F8DC
:1024C000A36AD9043CD52048214905F040F81720DB
:1024D000A36A1A0504D51C481E4905F038F81820CF
:1024E000184CA36A9B0512D51B49174805F02FF815
:1024F000A36BA26A110409D50121184A124804F0FD
:1025000090FE1EB1A36A23F40043A36219200D4C70
:10251000A36A5A0504D50C48114905F018F81A2089
:10252000A36ADB0504D508480E4905F010F81B2006
:10253000044A936A43F47F43936200232B7070BD77
:102540001620C5E700ED00E07C8F0008729A0008B5
:10255000889A000845990008999A0008B29A0008DC
:10256000C79A0008E29A00082DE9F0418AB0654B4D
:102570000446D3F80480002600AFC8F3080586F3AC
:102580001188BFF36F8F02F07F43B3F17F4F07D104
:1025900002F00C03082B12D15B495C4804F0D7FF12
:1025A000002634460023FB71EB1E092B00F28980C4
:1025B000DFE803F00A7F827B87878787878510079C
:1025C0004CBF0C460126EDE75149504804F0BFFFCF
:1025D00000234C4DFB71EB6A9A0705D54D494B48DA
:1025E00004F0B5FF002331E0EB6A002B01DA4A4921
:1025F000F5E7EB6A5B00F5D54849444804F0A7FFCE
:102600006B69A26943F480736B61BFF34F8FBFF3B3
:102610006F8F6B6932F8022C23F480736B61BFF308
:102620004F8FBFF36F8F4DF602739A4207D0AB6A9C
:10263000DBB26BB30120F91DFFF790FE37E0236892
:102640000121374A314804F0ECFD2368FA79DAB900
:1026500007F1080504F1200C2A4620686168083457
:1026600003C264451546F7D17A6A002E45D0C2F3FD
:10267000080121B96FEA52226FEA42227A621846B3
:1026800007F10801FFF7FCFD2837BD46BDE8F081E2
:10269000AB6A13F47F4F04D00120F91DFFF708FF48
:1026A00005E0AB6AB3F5803F9CD3FFF7ADFE034670
:1026B000CCE70020F91DBFE70020F91DEEE719491E
:1026C0008DE7194A18F4F87FE8468AB0174B18BF0F
:1026D00013466A461649103DC2E905134FF40073CC
:1026E0001384144BD56142F8103F00234FF411516D
:1026F0000648FFF7BFFAC54674E722F4FF7222F0DE
:102700000102BBE700ED00E0289B00087C8F000879
:10271000539B00086A9B00088B9B0008999B00084C
:10272000B89B0008D49B00080F9B0008FA9A000889
:10273000F89B000804000001044B5A6942F01002A3
:102740005A615A6922F008025A61704700ED00E0B0
:10275000EFF30880EFF3098101B57246FFF704FF3C
:1027600001BD00BF0A4880F30888102080F311885B
:1027700008484FF40061401880F30988EFF3148093
:102780000221084380F31488BFF36F8F04F0E7FE43
:10279000902E002090150020084B9B6883420BD19F
:1027A000EFF3058343B1064B5A6842F080525A60FA
:1027B0005A6A22F400425A6203F0E0BB4C0C00203B
:1027C00000ED00E00F498A684FF030001044EFF34D
:1027D000098C80E8F01F102080F31288BFF36F8F00
:1027E000094F4FF000664A698A603E60906E002390
:1027F000936680F3118802F1300090E8F01F8CF3AB
:10280000098870474C0C002004ED00E01EF0040F16
:102810000CBFEFF30880EFF30980816911F8021C07
:102820000229FFD001B5724604F086FE01BD00BF4B
:1028300040B2002807DB01234109034A00F01F00D2
:10284000834042F82130704700E100E040B20028A8
:1028500001F10101ACBF00F16040064B4FEA0111EC
:10286000C9B2ABBF00F5614000F00F0080F8001363
:102870001954704714ED00E0054B064A23F040431D
:1028800023F07F039360BFF34F8FBFF36F8F7047C9
:102890000000000800ED00E042F8203C009B0B49DE
:1028A00042F81C3C019B21F0010142F8183C029BBC
:1028B00042F8081C42F8143C4FF0807342F8043C84
:1028C0000023203A02658366704700BFA16B0008B1
:1028D0000A4B00B50E46154698602C4686F30988CB
:1028E0000020044B98472046002100220023024C80
:1028F0002047000075750008A16B00084C0C0020F3
:102900001022014B1A61704700ED00E000231021F6
:102910000348C21801333C2B82F80013F9D17047E9
:1029200000E100E008B5EFF30583064A103B02EB37
:10293000C30152F8330049688847BDE80840FFF7F3
:10294000FDBC00BF108C0008014B1860704700BF31
:1029500014000020F0B5114D114E124F85B04FF00C
:10296000FF334FF0FF32284601A902F0D7FC03469F
:1029700090B101213A460C4804F053FCEFE723687C
:1029800013B1019A934203D1D4E9013101A89847C8
:102990000C34B442F3D3E2E7044CFAE7CC01002054
:1029A000B48F00080B9C00084C8F0008B48F0008FF
:1029B000F0B585B001909DF82800DDE90C752E4634
:1029C0003D433C468DF808008DF80910ADF80A200B
:1029D000039311D1002426460C482246334601A910
:1029E00002F044FC041E0EDA0221094A094804F0F0
:1029F0000FFC204605B0F0BD03F0BAFA064B1B6F82
:102A00008342E9D1E6E70024F3E700BFCC010020D0
:102A1000209C00084C8F0008F00800202DE9F041B0
:102A2000054600244FF001080E4E0F4F2A787169B9
:102A30001319DBB208FA03F301EA03008B4309D14F
:102A4000E3B21344706157F833201AB107EBC303A4
:102A5000596890476A780134E3B29A42E6D2BDE8F9
:102A6000F08100BF00040140680A0020044B1844B4
:102A700000230133994200F8012BFADC704700BFB4
:102A800040010020034660B1B0FA80F2C2F11F029B
:102A9000D2B205498856054A11680B431360FFF707
:102AA000C7BEFF22F5E700BF40010020000401403F
:102AB000024A136823EA00031360704700040140D0
:102AC000032921D8DFE801F0020C10190F4B9A6896
:102AD00022EA00029A60DA6822EA0002DA607047AD
:102AE0000A4B9A680243F5E7084BDA680243DA605A
:102AF0009A6822EA00029A607047044B9A6802437F
:102B00009A60DA681043D860704700BF0004014043
:102B100030B5B0B1B0FA80F3C3F11F03DBB20B489C
:102B200050F833408C4204D100EBC3056D689542E8
:102B300005D044B940F8331000EBC30042600020D8
:102B400030BDFF23EBE76FF00F00F9E7680A0020C4
:102B500060B1B0FA80F3C3F11F03DBB20021044A75
:102B600042F8331002EBC30251607047FF23F5E7D0
:102B7000680A00200F2300F0030204329200934001
:102B800043EA9000C3B2064A023352F82320030CF2
:102B900093FAA3F3B3FA83F302EA1040D8407047E4
:102BA0000000014038B51F4B0D4618680B881446CD
:102BB000C3F30B03182B19D873B3013B172B2BD876
:102BC000DFE803F00D0C1E0C212A182A2A2A2A2AD3
:102BD0002A2A2A2A2A2A2A0D2A2A2A0D0020206097
:102BE0002B68B3F5805F10D2002038BD1C2B13D1A9
:102BF0004008F4E704F0CAFD88B104F0C7FDEEE731
:102C000049F64040EBE70848E9E7C3F313330133E3
:102C1000B0FBF3F02060E7E76FF08500E5E76FF0C9
:102C20000400E2E72C01002000127A00F8B53D4FC5
:102C300004F0AEFD384604F0A8FD02F0F3F83A4C7B
:102C40003A4A63681578C3F30313D35C47FA05F572
:102C500020FA03F6AE4202D2284602F031F9236888
:102C600023F480232360236843F4803323602368A4
:102C70009A03FCD5636A43F001036362636A9B07AE
:102C8000FCD5636803F00C03082B15D12368980763
:102C900006D4236843F00103236023689907FCD519
:102CA000636823F003036360636813F00C0FFBD1C8
:102CB000636823F0F0036360236823F0807323606C
:102CC00023689A01FCD400F035F8236843F0807340
:102CD000236023689B01FCD5636823F0F0036360E5
:102CE000636823F0030343F002036360636803F047
:102CF0000C03082BFAD1AE4202D3284602F0E0F8CA
:102D00000B4B00201F60636823F4E06343F480638F
:102D10006360636823F460536360636823F4404333
:102D20006360F8BD00A24A040010024066A30008D8
:102D30002C010020054A536823F47C1343F4E81364
:102D40005360536823F480035360704700100240BF
:102D500008B5074805F089FB38B10648FFF7F4FDD0
:102D60000448FEF799F8002008BD6FF01200FBE759
:102D7000508B0008792D00080A2838B50446074D05
:102D800004D1AB680D2128465B689847AB680348BF
:102D90005B68E1B29847204638BD00BF508B000801
:102DA00008B50121034A044804F032FA6FF08500A7
:102DB00008BD00BF9C9C0008248F000808B50121B5
:102DC000034A044804F024FA6FF0850008BD00BFF0
:102DD000C99C0008248F0008F7B5446805462068A0
:102DE00005F043FB48B90121A14AA24804F010FABA
:102DF0006FF01204204603B0F0BD0A216FF001000D
:102E000094F85630A3FB0131C01A4FF0FF3363EB47
:102E1000010104F067FD6C680A20002104F062FDE6
:102E200020688368D96861B9C820002104F05AFD80
:102E30006FF057042346904A01218E4804F0F1F9BF
:102E4000D8E73C220023884710F1860F044613D1AF
:102E5000002301211A46686804F0ADFC041EE9DB7A
:102E60003220002104F03EFD284604F035FD041E0A
:102E700009DA824A2346DFE7C820002104F032FD48
:102E8000002CF1DAD6E76E680423DF21304606F124
:102E90002B0204F090FC041EC0F2D3800523B22163
:102EA000686806F1260204F086FC041EC0F2C980A0
:102EB0000023BA218DF80730686801230DF107025D
:102EC00004F079FC041EC0F2BC800F23C6218DF8EB
:102ED0000730686801230DF1070204F06CFC041E42
:102EE000C0F2AF80737FB7218DF807306868012387
:102EF0000DF1070204F05FFC041EC0F2A280337FD4
:102F0000BB218DF80730686801230DF1070204F03A
:102F100052FC041EC0F29580B37F686823B301277A
:102F2000C2213B460DF107028DF8077004F043FC07
:102F3000041EC0F28680F37FC3218DF807306868D5
:102F40003B460DF1070204F036FC041E79DB96F8CF
:102F50002030C4218DF8073068683B460DF1070228
:102F600004F029FC041E6CDB0223D021686806F102
:102F70002F0204F020FC041E63DB96F8213036217A
:102F80008DF80730686801230DF1070204F013FC87
:102F9000041E56DB96F823303A218DF80730686816
:102FA00001230DF1070204F006FC041E49DB96F82C
:102FB0002430C0218DF80730686801230DF1070225
:102FC00004F0F9FB041E3CDB96F8223026218DF834
:102FD0000730686801230DF1070204F0ECFB041EC2
:102FE0002FDB96F82530686873B3002321211A4639
:102FF00004F0E1FB0028044623DB0E23E02168688F
:1030000006F1310204F0D7FB041E1ADB0E23E12186
:10301000686806F13F0204F0CEFB041E11DB0223B8
:10302000B021686806F14D0204F0C5FB041E08DB00
:103030000323B121686806F14F0204F0BCFB041EB3
:1030400005DA0F4A2346F7E61A462021D0E7002387
:1030500011211A46686804F0AEFB041E05DB4FF42C
:103060009660002104F03EFCC4E6064A2346E3E6EF
:10307000ED9C0008248F0008079D0008249D00088F
:10308000449D0008609D00082DE9F0414368144606
:103090005A69481E8242D3F8108014D91C259E69B3
:1030A000454300F0D1FA094B77190344002013F887
:1030B000013C43445B689BB2636073596370BB79A6
:1030C0002370BDE8F0816FF01500FAE7959F0008C6
:1030D0001C232DE9F0414B4342681C3B95694C1E73
:1030E0001D4453690746A342166925D995F8058002
:1030F000B8F1000F04D00023AB710020BDE8F081CF
:103100002146304600F056FB0028F6D0204600F05D
:103110009BFA0B4B2146034413F8012C935923F0DF
:1031200002039351786804F03EFC2146304604F0D7
:1031300026FC85F80680E0E76FF01500DEE700BFAB
:10314000959F000870B5054646681B4C204605F063
:103150008CF940B90121194A194804F059F86FF067
:103160001204204670BDA3681B683BB90121154AB3
:10317000134804F04DF86FF00404F2E7204631469E
:10318000984704460028F1D12846B368984723465B
:103190001C2120467269934207D300232A691360D9
:1031A0002A6953602A699360DBE7B26901FB032255
:1031B00001339071EEE700BFF08900089D9D000883
:1031C0002C8F0008BC9D00081C232DE9F041064609
:1031D00040680D468469076903FB014463792BB994
:1031E000A3791BB9BDE8F04104F0DDBB29463846A0
:1031F00005F1010800F0B6FA70B163791BB92946F0
:10320000384600F027FA0123656942463046AC464D
:103210002169BDE8F04160472946384600F08AFA46
:1032200058B1237E03B9A37163791BB92946384687
:1032300000F016FA00236569E7E73846294604F0EE
:10324000B7FC074640B101210B4A0C4803F0E0FFF0
:103250006FF004036569D8E7094A0121074803F0C4
:10326000D7FFA77173682946186900F035FA294617
:10327000706804F098FBEBE7CD9D00082C8F0008E8
:10328000E69D00082DE9F04F4FF01C080E464768F8
:1032900008FB01F88BB083466846D7F818A014469F
:1032A000D7F8109005F0C6F87B69013EA8F11C081C
:1032B000B3420AEB080507D832469149914804F019
:1032C00059FB6FF0150708E0AB7953B132468E49D0
:1032D0008C4804F04FFB6FF00F0738460BB0BDE889
:1032E000F08F3146484604F04AFB074610B132469B
:1032F0008649EDE73146DBF8040004F054FB6388AF
:1033000003F47E63B3F57E6F08D10123AB716B715B
:10331000A3696B6163692F762B61DEE723695A69C4
:10332000B2F5803F01D37A49C8E7A188E2888A4292
:1033300005D0784A0121734803F06AFFC1E7042AE7
:1033400004D0511E012901D97349B7E71B7FC3F38C
:103350008012B2EBD31F01D0704AEBE70123AB71AF
:10336000A3696B61637803F007034AF80830636967
:103370002B61A388AB60E388EB6023691B7FC3F3F9
:1033800080132B7623691B6823B90221644A5D48A8
:1033900003F03EFF23695B6823B90221614A594863
:1033A00003F036FF23695AF808101A68012907BF8D
:1033B00001925A6800925A680CBF009201922268EA
:1033C000C2F3C332032A13D8DFE802F01402160F47
:1033D0004FF480520992627802F00702012A0ED05F
:1033E000022A1AD00AB3504968E74FF44052F1E775
:1033F0004E4963E70022EDE74FF40052EAE710225E
:103400001B7F0292C3F38102C3F30113012A0FD081
:10341000022A13D07AB9802211E000221B7F029287
:10342000C3F30112C3F38103F0E74FF48042F5E7E1
:103430006FF0850751E703223D493FE70022012B4A
:103440000592F5D0022B04D0002B54D00322394929
:1034500034E7002304932B7E37485B0103935AF82B
:1034600008309A1E534253412B71A188334A91FA76
:10347000A1F30029B3FA83F308BF4FF0FF3352F8EA
:103480002330E288069392FAA2F3002AB3FA83F378
:1034900008BF4FF0FF3350F8233007932879236992
:1034A0005B6950B3B3FBF1F33046089300F0CCF8FE
:1034B0006A460146484601F0DBFC304600F0C4F89D
:1034C0001F4C204410F8012C52F8093043F002033D
:1034D00042F809302B7E002B3FF4FFAE304600F05F
:1034E000B3F8044414F8012C52F8093043F00403F3
:1034F00042F80930F1E64023ACE7B3FBF2F3D3E73F
:10350000F69D00082C8F00081A9E0008319E0008C6
:10351000529E0008699E00088B9E0008AF9E00081E
:10352000E59E0008049F0008349F0008219F0008C2
:10353000489F0008639F000804910008F890000865
:10354000959F00082DE9F84F9946436893465A69BC
:103550004C1EA2421D6914D94FF01C0A2146284670
:103560009F6904F00CFA0AFB04FA064607EB0A0806
:10357000002863D157F80A30012B07D033F002033B
:1035800036D06FF015063046BDE8F88F204600F0C3
:103590005BF8DFF8B0A0504410F8013C20462B4403
:1035A000C3F80CB000F050F882441AF8013C2B44E8
:1035B000C3F8089098F804302046DFF8889063B389
:1035C00000F042F8484410F8011CD8F808300A9876
:1035D0002944B0FBF3F34A68120C120413434B6006
:1035E00001232146284688F8063000F0D3F8CAE7C0
:1035F000204600F029F8DFF84CA0504410F8013CB8
:1036000020462B44C3F808B000F01EF882441AF894
:10361000013C2B44C3F80C90CCE700F015F8D8F827
:103620000C1081440A9819F8012CB0FBF1F72A44D8
:1036300053681B0C1B041F435760D1E76FF00F0644
:10364000A1E700BF959F0008014B53F82000704789
:10365000D4910008014B53F821301847B891000865
:10366000014B53F8213018479C91000808B5044BD2
:1036700053F821309847003818BF012008BD00BF1B
:103680008091000808B5044B53F821309847003862
:1036900018BF012008BD00BF64910008014B53F81A
:1036A000213018474891000808B5044B53F82130E1
:1036B0009847003818BF012008BD00BF2C910008B2
:1036C00008B5044B53F821309847003818BF012043
:1036D00008BD00BF109100082DE9F84300AF044673
:1036E0000D46FFF7CFFF294681462046FFF7BEFF74
:1036F000294680462046FFF7D7FF29460646204642
:10370000FFF7DEFF8AB06A4606230849C2E907864A
:10371000C2E90519506242F8103F00234FF44351AB
:103720000348FEF7A7FABD46BDE8F8839C9F000852
:10373000348F0008094A10B552F82140084A224443
:1037400012F8012C835813F0020304D0FFF79AFFFC
:1037500000F0010010BD1846FAE700BFD491000840
:10376000C89F0008094A10B552F82140084A22446F
:1037700012F8012C835813F0040304D0FFF776FFEE
:1037800000F0010010BD1846FAE700BFD491000810
:10379000C89F0008054B53F82120054B134413F82C
:1037A000012C835843F0010383507047D4910008E3
:1037B000C89F0008054B53F82120054B134413F80C
:1037C000013CC05800F00100704700BFD4910008D0
:1037D000C89F0008094B53F82120094B134413F8E4
:1037E000013CC25822F00102C250C35813F0010F2D
:1037F00014BF6FF00A000020704700BFD49100088A
:10380000C89F00082DE9F843D0F804801746D0F887
:103810001090D8F808000D461E4603F00DFFB7F5CE
:10382000001F044616D12846D8F80840FFF7A2F931
:1038300084420CD1294603F0FFFE0446FFF738F915
:103840002046FFF785F900212046FFF739F90020CF
:10385000BDE8F883B7F5800F20D0B6F1806F19D09E
:10386000B6F1C06F18D0B6F1007F1AD102264A46D1
:1038700020460F49FFF74CF9B0B92846D8F8081090
:1038800003F0DDFE20463146FFF71AF92046FFF728
:10389000F9F8DCE70126EAE70326E8E76FF08500A0
:1038A000D6E76FF01500D3E76FF00F00D0E700BF49
:1038B000CB7C000838B50369044658600A4D284699
:1038C00004F0D3FD60B1AB6861681B680C3123B1B3
:1038D0002846984700EAE07038BD6FF05700F9E7D6
:1038E0006FF01200F8E700BFF08900080346F0B55A
:1038F00053F8186D0546726885B0D16892685C1AF5
:10390000154BE4105C430C236343D718D058397926
:1039100004F0D4FA031E08DA012100930F4A23466B
:103920000F4803F088FC05B0F0BD15F9082C9A4249
:10393000F9D04FF0FF304FF0FF3105F8083C3A89DD
:10394000CDE902010121003B18BF0123304600915F
:10395000FFF72EF8E7E700BF398EE33835A00008FF
:103960003C8F00082DE9F04F85B04FF00009466804
:1039700002AFF568786018353D6073684B4505DC2B
:10398000337D002B40F09F80002423E00C2303FBB9
:1039900009F8D6F808A05AF808000AEB080404F061
:1039A00064FD0346D8B95AF808206C4688B01168FF
:1039B00002AA4948C2E905014FF4007191834749C1
:1039C00042F8101F4FF4E2514548FEF753F9A5465F
:1039D0006FF0120420460C37BD46BDE8F08FE38837
:1039E0005AF80800217943F480324FF0010C046941
:1039F00013F0010F23680CFA01FCD0F808E014BFA3
:103A00004CEA030323EA0C032360DEF800309847F6
:103A1000044638B14B46334A00900121304803F048
:103A20000AFCD7E77B68284645F8183C316904F062
:103A3000BCFD337D002B42D10123D6F808A0A5F1AF
:103A400014010AEB080B9BF8042003FA02F2264B40
:103A500045E904325AF808008268D46964B1012249
:103A6000A047041E0BDA0121204A1D4803F0D0FBB9
:103A70001F4A4B460094D0E76FF05704F3E79BF8DA
:103A800004105AF8080004F019FA05F8080C5AF85E
:103A900008009BF8041083689C696CB14FF0C06308
:103AA0004FF0A072A047041E09DA01212346114AF3
:103AB0000B4803F0B6FBDBE76FF05704F5E709F1BD
:103AC0000109483559E70A2332683868A2FB032305
:103AD00001F05EFF58E700BF51A00008030000019D
:103AE0003C8F000861A00008E57E000881A0000866
:103AF0009DA00008A4A000082DE9F04746680546EF
:103B0000336800AFD3B96C4688B001686A4637485D
:103B1000C2E905014FF400719183354942F8101F45
:103B20004FF4E2513348FEF7A5F8A5466FF01204B2
:103B3000336813BB2046BD46BDE8F0870024F7E795
:103B4000012103462C4A2B4803F06BFBF2E76C463D
:103B500088B029686A462948C2E905014FF4007116
:103B60009183234942F8101F4FF4E2512148FEF798
:103B700081F8A5466FF01204DCE7002CFAD1A146CB
:103B80004FF00108746854F8390004EBC90A04F0D6
:103B90006CFC03460028DAD054F839009AF8041077
:103BA000BAF80630D0F810C0DA07DCF8004054BF8D
:103BB00043F4B01383F4D01323F4801208FA01FE07
:103BC000DB07D0F808A04CBF44EA0E0424EA0E0438
:103BD000CCF80040DAF80030984704460028AFD10E
:103BE000336809F101094B45CCD8A3E7D1A00008FF
:103BF00003000001548F0008FCA000081BA100086E
:103C000000222DE9F347134604468A4211D22BB90C
:103C100054F83230C3F389230132F6E754F8320006
:103C2000C0F389200028F7D098425ED1013291423A
:103C3000F4D8E3B12E4A13F0010F906940F001006F
:103C4000906192694FEA132002F001020192019AF9
:103C5000C3F3440200FA02F0264A09BF5368D3694D
:103C6000034343F0E06316BF03435360D361224F25
:103C700004EBC106A64201D1002011E0D4E90025E1
:103C800012F003090FD145F04105C2F3870AC2F3D0
:103C9000831257F82280B8F1000F15D16FF012008F
:103CA00002B0BDE8F087B9F1020FEED0B9F1010F13
:103CB00007D115F4C07F0CBF45F0020545F004059F
:103CC000E3E745F00105E0E7404604F0CEFB0028BD
:103CD000E4D04B462A4640460AF00F0104F0D9F8DA
:103CE000002804F10804C5DADAE76FF01500D7E719
:103CF0000010024000000140C89200080121024A61
:103D0000024803F085BA00BF59A100089C8F000843
:103D1000F8B50C46036941685E682379012B33D0FE
:103D20009A1E55425541AD026279022A96BF354F1F
:103D30004FF4005C37F812C0A279042A27D0003B68
:103D400018BF01231B03E279012A0A680CBF4FF454
:103D500040770027A642D1681CD121F4B0512943F5
:103D60000B43D360136923F4405343EA0C031361FC
:103D700043681A68536923F440733B4353613168C5
:103D8000BDE8F84004F0CEB94FF4C065CCE74FF47D
:103D90008053D8E701F4C0618D421FBFD16821F480
:103DA000C0612943D160426811680A6902F4405237
:103DB00094451FBF0A6922F4405242EA0C020A618C
:103DC00042681168CA6802F4805293421FBFCA68F1
:103DD00022F480521343CB6043681A68536903F49A
:103DE00040739F421FBF536923F440733B435361A9
:103DF00021683368994203D004F094F92368336052
:103E0000F8BD00BFDA940008F7B5054646680469B6
:103E10003248206004F029FB48B9314A0121314879
:103E200003F0F6F96FF01204204603B0F0BD2068ED
:103E3000F16883681B683BB901212B4A294803F0CC
:103E4000E7F96FF05704EFE798470446E0B900211F
:103E5000306A01AA04F070F8041EE5DB019B002221
:103E600019791868FFF7CCFE041EDDDB6E682B693C
:103E700034685F68E36823F40053E360706804F01B
:103E8000F4FA48B9194AC9E70121174A154803F05D
:103E9000BFF9002CC8DBDAE7D6E901018368DB68EB
:103EA00003B1984704F10C0353E8003F43F00C03BF
:103EB00004F10C0141E80032002AF3D139462846CA
:103EC000FFF726FF337D1BB1636943F0080363618D
:103ED000E36843F40053E3600024A5E7F089000899
:103EE0009D9D00089C8F000887A10008A7A10008DD
:103EF0002DE9F0410C464368A6791D680369D3F8A3
:103F000004800B794979012B33D102294CD9042E35
:103F100047D04FF480574FF4C06203238B4240D107
:103F2000002F79D0002A14BF03220422B24238D1D4
:103F3000E37963B1012B34D13A4B9D4207D0A3F50D
:103F400074439D4203D003F580639D4229D1EB6801
:103F5000214623F40053EB60FFF7DAFEEB6843F4ED
:103F60000053EB6094E8030088E803000020BDE8FC
:103F7000F081022B08D1022921D9042E11D04FF44F
:103F800080624FF48057C8E702290A461FD9042EE1
:103F900004D133B94FF480571A46BEE763BB0329F7
:103FA000C4D06FF08500E2E71F4A042E32F811C03A
:103FB000F7D04FF4C062033B012B10D8F1E71A4A47
:103FC000042E32F811C0ECD04FF48062F3E7164AA9
:103FD000042E32F811C016D1002BE2D11A464FF44C
:103FE0008057BCF5805F13D0BCF5405F12D0BCF1A8
:103FF000000F92D1012391E7033B012BD1D900227D
:10400000BFE70022D7E7002BFBD11A461F46E8E79F
:10401000002383E7022381E7002A14BF0222032240
:1040200084E700BF00380140DA9400082DE9F04130
:104030000469D0F80480B4F8C070666C4F4304F192
:10404000D80520220021284602F004FBC4F8EC70B9
:10405000B6BB204B1E60C4F8D830022294F8F4306E
:10406000D4F8B40062F3830384F8F430D8F8003055
:10407000D4F8FC200C33C4F8DC3094F8FA3002F0A9
:104080000F0283F001035B0103F0200343EA0223E4
:10409000B4F8F420C4E9335422F473621343A4F84F
:1040A000F4308368D4F8B8101B6804F1BC02984758
:1040B00070B9D4E92D01BDE8F04183689B681847C9
:1040C00094F8F930C4F8D860002BC6D00022C5E7B8
:1040D000BDE8F08120020020002B10B50C4609DA63
:1040E0001346104A0121104803F09BF8636E43F019
:1040F000010306E0D1F8B8309A4209D14B6E43F083
:104100000403636604F15400BDE8104001F030BAC6
:10411000CB6E9A4203D14B6E43F00203F1E7134694
:10412000024ADFE7DDA10008848F000801A2000831
:104130002DE9F0410469D0F80480B4F87660E76CAA
:104140004E4304F18C0520220021284602F082FA19
:10415000C4F8A060AFBB204BC4F89030022294F8A2
:10416000A830A06E62F3051384F8A830D8F80030A8
:10417000D4F8B0200C33C4F88C3094F8AD3002F091
:104180000F0283F00103DB0003F0080343EA02237C
:10419000B4F8A820C4E9205422F4706222F00C0282
:1041A0001343A4F8A8308368E16E1B6804F1700221
:1041B000984770B9D4E91A01BDE8F04183689B685B
:1041C000184794F8AE30C4F89070002BC6D0002287
:1041D000C5E7BDE8F08100BF200200202DE9F043D3
:1041E0008BB00D466E4E00AF07F10804D0F804C046
:1041F000D0F8109090460FCE0FC496E80F0084E8D8
:104200000F00D9F80020DCF80040AA42AB880FD19B
:10421000190508D5236823F44443B8F1000F04D0EE
:1042200043F440432360002011E043F40043F9E7E6
:10423000C3F34512082A01D0102A06D11A040AD560
:104240000121584A584802F0E3FF6FF085002C37EF
:10425000BD46BDE8F0835548DCF80C108368DB6888
:104260003BB951480121524A02F0D2FF6FF00400DD
:10427000EDE73A1D98470028F3DB012379682868A9
:1042800021FA03F2904219D20133092BF8D16C467E
:104290008AB06A46474BC2E905304B08D361052313
:1042A000090A116242F8103F3F4800234FF42151A0
:1042B000FDF7E0FC6FF01500A546C8E7226807F19E
:1042C000280122F040022260226801EB830353F8A8
:1042D000243C22F0380213432360AB889B0703D4AD
:1042E000236823F0020302E0236843F00203236003
:1042F000AB8813F0040F236814BF43F0010323F0CD
:1043000001032360AB8813F4006F236823F4444354
:1043100004D0B8F1000F32D043F440432360AB889F
:1043200013F0100F236814BF43F0800323F08003C1
:104330002360236823F400532360AB6813B323681E
:1043400043F400732360636823F004036360AB8865
:1043500013F0010F236814BF23F4827343F48273B4
:104360002360AB88C3F34513082B23680CBF23F4E9
:10437000006343F400632360C9F8005053E743F43B
:104380000043CBE7AB8813F0010F236823F40073DD
:10439000D8D143F480232360636843F00403D5E756
:1043A000B48F000827A20008848F0008F089000855
:1043B00045A2000871A200082DE9F04F85B09A4689
:1043C0000469436800AF1E687B60D4F8B43080464F
:1043D00089469346002B00F0D181A36E002B00F09C
:1043E000CD811AB9BAF1000F00F02C83494620465E
:1043F00003F08DFF04F1540001F014F9BBF1000249
:1044000018BF012249464046FFF7E8FE054600284E
:1044100060D1B9F804305246C3F34513082B0CBFE2
:104420000123022359462046356803F0B7FE33685E
:10443000002243F0400333600121D8F8100003F05C
:1044400091FFB9F80430D4F850A0C3F3022305F467
:104450004445A4F87430A4F87630A4F8C030A4F829
:10446000C230BAF1000F45D1D4F848A0BAF1000F1C
:1044700058D1002312E06366A36C13B19A4528BF9C
:104480009A4651464046FFF753FE034630B951461F
:104490004046FFF7CBFD0346002849D040467B60ED
:1044A00003F09FFF326822F040023260726822F00F
:1044B00002027260726822F001027260D4E91A018D
:1044C0008268D2689047D4E92D018268D26890470B
:1044D0007B681D46236813B19B889B0405D4002389
:1044E000636004F1100001F043F828461437BD461C
:1044F000BDE8F08F00236366002DBDD0B5F5404FB9
:1045000040F02881D4F848A040465146FFF78EFD80
:1045100003460028C2D173684FF4404543F00203BC
:1045200073600EE000236366002DAAD09A46E5E78B
:104530000546726842F001027260726842F002023F
:104540007260D8F8101001F1540B7960002342F228
:104550001072584601F040F8034600289ED1796851
:104560004B6EDA0700F172824B6E13F0060FECD03F
:10457000B3689B07FCD5B3681806F9D4736823F0B9
:1045800002037360736823F001037360B9F80430A9
:10459000C3F3022B5B46002D5CD1A26C4AB152459D
:1045A00018D2C7F804B00121724A734802F030FEF5
:1045B0007B68226D5ABBD4F850A00023BAF1000FDB
:1045C0007FF459AFD4F848A0BAF1000F3FF451AFCF
:1045D000636656E7A2EB0A02A2648AB9626B04F131
:1045E000380108326263A26B04F13400013AA2631D
:1045F00004F14802C7F804B003F0BAFD6064D7E7DD
:10460000626C002AD5D00AFB0B226264D1E75245C6
:1046100005D20121574A584802F0FAFDCBE7A2EB38
:104620000A0222657AB9E26B04F140010832E263C2
:10463000226C04F13C00013A226404F1500203F0C0
:1046400097FDE064B7E7E36C002BB4D00AFB0B33B3
:10465000E364B0E7B5F5404F34D1A26C62B9236D85
:10466000002B5CD1236D002B40F0EE81A26C002A60
:104670003FF4FFAE636645E7524508D201213D4A4B
:104680003D4802F0C5FDA36C002BEBD1E7E7A2EBA0
:104690000A02A2647AB9626B04F1380108326263DB
:1046A000A26B04F13400013AA26304F1480203F062
:1046B0005FFD6064E7E7636C002BD3D00AFB0B332C
:1046C0006364CFE7226D32B152450DD20121294AF0
:1046D000294802F09DFDD4F850A0BAF1000F3FF434
:1046E000C3AE0023636609E7A2EB0A0222657AB92A
:1046F000E26B04F140010832E263226C04F13C00F9
:10470000013A226404F1500203F032FDE064E2E772
:10471000E36C002BDFD00AFB0B33E364DBE7336889
:1047200023F040033360336823F4444343F40043ED
:104730003360336843F040033360D4F850A0BAF1DB
:10474000000F14D1A36C002B3FF493AEC4F864A007
:104750004FF4004551464046FFF7EAFC0346002867
:104760007FF49CAE736843F001037360E9E60023B5
:104770006366EDE7A0A20008848F0008BBF1000F7C
:1047800003D1BAF1000F00F05D814946204603F0E5
:10479000BEFDBBF1000218BF012249464046FFF7AB
:1047A0001DFD054600287FF495AEB9F80430524649
:1047B000C3F34513082B0CBF01230223594620469F
:1047C00003F0ECFC3368002203F4444A336801210F
:1047D00043F040033360D8F8100003F0C3FD2368B2
:1047E0007A689B88D2F80090D9076AD4137C002B92
:1047F0004BD0D9F8003003F4444BBBF5404F33D1D4
:10480000D9F808309A073BD47B68D3F80090D9F8E0
:10481000083013F0700300F0EA806D468AB06A46F3
:104820008C4951618C49C2E906134FF4007313841B
:104830008A4B42F8103F00234FF411518848FDF78E
:1048400019FAD9F80830AD46590607D5D9F80C3011
:10485000FB60FB68D9F80830FB60FB686FF004056B
:10486000404603F0BEFD35E6D9F80830DB0703D536
:104870002146484603F009FDBBF5004FC0D1C3E710
:104880002146484603F0B9FCBEE7D9F8003003F4EE
:10489000444BBBF5004F08D17B6818688368D90783
:1048A000FCD5214603F0F1FCAEE7D9F808309807B3
:1048B000FBD52146484603F0A0FCBBF5404FA3D0F2
:1048C000EAE7D9F8082092076BD5A26C002A68D0D5
:1048D000C3F34513082B626C4DD1137889F80C3063
:1048E000A36C9BB1013BA364002B3ED1636B0833E7
:1048F0006363A36B013BA363012304F1480204F14A
:10490000380104F1340003F033FC6064D9F8083056
:10491000D8077FF579AFE36C002B3FF475AF226DBC
:10492000002A3FF471AF22689288C2F34512082A28
:1049300045D199F80C201A70236D002B3FF464AF19
:10494000013B2365002B33D1E36B0833E363236C16
:10495000013B2364012304F1500204F1400104F1FE
:104960003C0003F005FCE0644EE7636C002BCDD007
:1049700001336364CAE71388A9F80C30A36C002BD9
:10498000C4D0013BA3643BB9636B08336363A36B7F
:10499000013BA3630223B0E7636C002BB6D0023364
:1049A000E7E7D9F8043023F08003C9F80430ADE715
:1049B000E36C002B3FF428AF0133E36424E7D9F81C
:1049C0000C201A80236D002B3FF41EAF013B2365A2
:1049D0003BB9E36B0833E363236C013B236402239D
:1049E000B9E7E36C002B3FF40FAF0233E5E7BAF50C
:1049F000404F1ED1A36CCBB9236DBBB1D9F80830A1
:104A00001A06FBD4D9F8003023F04003C9F800306F
:104A1000D9F8003023F4444343F40043C9F800308C
:104A2000D9F8003043F04003C9F80030336803F48C
:104A3000444AA36C002B7FF4D2AE236D002B7FF48D
:104A4000CEAE0DE7554650E5002313E66FF00403A4
:104A500024E500BFBEA200083AA30008040000013C
:104A6000848F00082DE9F04383B000AF06694568E4
:104A7000524C204603F0F9FC38B90121504A514804
:104A800002F0C6FB6FF012040CE0A368E9681B6833
:104A90006BB120469847041E0CDA01214A4A494866
:104AA00002F0B6FB20460C37BD46BDE8F0836FF040
:104AB0005704F2E7002168683A1D03F03DFA041E2E
:104AC00007DB7B68002219791868FFF799F8041E44
:104AD00006DA012123463D4A3A4802F0A2FBE1E70B
:104AE000B06EC0B103F0C1FC0346A0B9B26E6C4613
:104AF00088B011686A463648C2E905014FF4007172
:104B00009183344942F8101F4FF4E2512D48FDF7CC
:104B1000B1F8A546B6E7D6F8B40030B103F0A5FC6D
:104B2000034610B9D6F8B420E1E74FF00108B568A4
:104B3000D6E9023203EBC2039D4204D3304603F0B0
:104B400031FC0024AEE7286803F08FFC034690B9DF
:104B50002A686C468AB0106829796A46D1614FF498
:104B600000711D4D11841D49C2E9055042F8101F06
:104B70004FF41151CAE728682979EB88D0F810C0A2
:104B8000DA07DCF8004054BF43F4B01383F4D013C9
:104B900023F4801208FA01FEDB07D0F808904CBF1E
:104BA0004EEA040424EA0E04CCF80040D9F80030A0
:104BB0009847041EFFF676AF0835B9E7F08900087C
:104BC0009D9D0008848F0008C9A20008E4A2000887
:104BD00002A300080300000116A30008040000015E
:104BE0004FF0E02310B50F499C691A6908689B696A
:104BF0000D4902F4803234B993B903464AB90A68C0
:104C00001044C01A10BD002B08BF03460AB9A342C6
:104C1000F5D90A6802440A604FF0E0221269EEE713
:104C20000446F3E7480C0020440C002010220A4BF5
:104C3000002083F823204FF4E152084B1A60084B00
:104C400041F61F4218604FF0E0235A6198611A69DB
:104C500042F007021A61704700ED00E0480C0020A6
:104C6000440C0020684620F007018D4619B5FFF777
:104C7000B7FF1149114B0868D3E90042001942F10E
:104C80000002C3E9000200230B604FF4E1530C4A19
:104C9000D2E90041001BB0FBF3F043431B1941F183
:104CA0000001C2E9003101F077FBFDF747FBBDE8E9
:104CB00019408546704700BF440C002008080020BA
:104CC000000800202DE9F041DFF8E08099B1421C96
:104CD0000BD14FF0E022136923F0010313614FF071
:104CE0007F43C8F80030BDE8F081D8F800600128A3
:104CF00007DC00270BE0431CD8F80060F7D140F632
:104D0000191040F61A139842A8BF1846471EEFF331
:104D10001185102383F31288BFF36F8FFFF760FFB5
:104D20004FF0E023224C9969D4E9002380184FF01A
:104D3000000243F10003C4E900031E4B1A601E4B3E
:104D40001A68831A2ED44FF4E15C0CFB073303F589
:104D5000E0531F33B3FBFCF7131A0CFB0733B3F517
:104D6000806F38BF4FF48063144A934228BF1346C4
:104D70004FF0E022C8F80030013B906953610023F6
:104D800081429361A1EB000338BF9B19D4E9001263
:104D90005B1842F10002C4E9003285F31188BFF3C9
:104DA0006F8FA0E74FF48063E2E700BF480C00205C
:104DB00008080020440C00200008002020DFFF002D
:104DC00038B5EFF31185102383F31288BFF36F8F8B
:104DD000084B1C68084B1B68E41AFFF701FF85F3BA
:104DE0001188BFF36F8F4FF4E1532044B0FBF3F011
:104DF00038BD00BF080800200008002038B5EFF3D8
:104E00001185102383F31288BFF36F8F044B1C6846
:104E1000FFF7E6FE85F31188BFF36F8F204438BD9E
:104E2000080800200D4A536803F00C01082912D12C
:104E30000B48C3F38341DB03405C09D55368094A3F
:104E4000C3F340435043084AD35CB0FBF3F07047D0
:104E5000064B584370470348704700BF001002409C
:104E600078A3000800127A0076A3000800093D002C
:104E700070B5124B0B4413F8015CD2E90236334390
:104E8000166944593343566924F4FF443343966901
:104E900024F070043343D66941193343566A3343CF
:104EA0002343435153680020CB6013688B604B68E9
:104EB000126A1B0C1B0413434B6070BD88A30008CF
:104EC000D8B10F4B984216D80E4B984294BF002091
:104ED00001200D4A136823F007030343136013688E
:104EE00003F0070398421CBF136803F00703C01ABE
:104EF00018BF012070470220EBE70120704700BF78
:104F0000006CDC0200366E010020024010B5044641
:104F1000FCF7E4FD03480121034A02F079F9204639
:104F200003F0AEFA7C8F00088FA300082DE9F84348
:104F300004460D4600AFEFF31188102383F3128867
:104F4000BFF36F8F0428294A98BF294BE9468AB0DE
:104F50009668117C98BF53F820306A4688BF254B6D
:104F6000C2E9073140F2013323489384234BC2E95D
:104F7000050442F8103F00234FF431512048FCF75C
:104F800079FECD4645B1EB69C3F3080323B1012196
:104F90001C4A1B4802F03CF92EB1304603F01AFBC4
:104FA00008B1037803B91848E9468AB06A46174B36
:104FB000D061C2E9053640F201331384144B42F844
:104FC000103F00234FF411510D48FCF753FE2946C2
:104FD000CD462046FFF79AFF88F31188BFF36F8F05
:104FE0003046FDF7D9FBBD46BDE8F8834C0C0020E8
:104FF000A09300089EA30008B4A3000805000001C8
:105000007C8F0008DCA30008ACA30008FDA3000807
:105010000400000138B50A4B53F82040013053F822
:105020002050A54200D838BD606830B1037FDB074F
:1050300001D403F02DFA0834F3E723689847FAE720
:10504000B4930008012270B52E4B032086B01A706D
:10505000FFF7E0FF01F0E6FA2B4C2C4DAC421AD1E1
:105060000420FFF7D7FF2A4C2A4D2646AE4204F112
:10507000300416D300F088FE254C274EAC422CD3CA
:1050800000F096FEFBF72EFB244A137B23F001036E
:10509000137306B070BD54F8043B002BE0D0984762
:1050A000DCE754F80C3C059354F8103C049354F896
:1050B000143C039354F8183C029354F81C3C01939D
:1050C00054F8203C009354E90A2354E90C0100F001
:1050D00065FC54F8303C5E65C7E7D4E90A23B3F1B8
:1050E000FF3F08BFB2F1FF3F05D052EA030120683D
:1050F00003D100F019FF3034C0E73146183001F019
:10510000BBF8F8E7830C0020148F0008148F000808
:10511000F08D0008208E0008C78600088008002057
:1051200008B50348034A0021121A03F0C8F908BD64
:10513000200200208C0C0020702370B5134E012239
:1051400003FB0066002386B0CDE904230F22019300
:10515000CDE9023214230E4D0E4903FB00550446DF
:1051600001EB00214FF4807230460B4B009500F0AC
:1051700015FC737B2C7423F004037373074B013409
:1051800003EBC423EE606B6006B070BD1008002016
:105190004C0C0020901D0020C784000890150020B2
:1051A000BFB50020FFF736FF284B83F30888284C53
:1051B00000256369274F43F400736361F02384F88B
:1051C0002230E57725766576A57684F82050636AE7
:1051D00043F4E0236362FDF7AFFAFDF791FB4FF074
:1051E000FF33A362E362FCF7DBFB1B4800F02CFCFF
:1051F00003F03AF9FCF796FA0120FFF70BFF0220C3
:10520000164CFFF707FF00F007FE154B15495C61D0
:10521000154B4FF48052059301232046CDE90353EB
:10522000CDE901553B46009500F0B8FB0646627B90
:10523000204622F00402627303F008FA2846FFF7C2
:105240007BFF3A4631462046FDF742FB901D002089
:1052500000ED00E045500008800900208008002093
:105260004C0C0020901E00208C9600082DE9F34184
:1052700004460E4600F10808EFF31187102181F370
:105280001288BFF36F8F406A2169884233D2256844
:10529000AC4219D0C5B1284603F020F905F1180039
:1052A00003F0A7FAE268002431462869FAF740FFC4
:1052B0002846EC6603F0CAF94046394600F03EFD48
:1052C000204602B0BDE8F081E2683146206AFAF774
:1052D0002FFF0020236AE2681344A26923629342ED
:1052E00004BF63692362636A0133636287F31188D1
:1052F000BFF36F8FE5E752EA03010AD00649404643
:1053000089680E61CDE900233946224600F082FC0F
:10531000D7E76FF02200E9E74C0C0020F7B5044610
:10532000084604F10807EFF31186102181F3128873
:10533000BFF36F8F616A002939D0E268E169FAF73B
:10534000F7FEE369E26825681344A269E3619342CA
:1053500004BF6369E361636AAC4203F1FF336362D4
:1053600033D02846002D31D003F0B8F805F11800ED
:1053700003F03FFAE2682969206AFAF7D9FE236A46
:10538000E26828461344A2692362934204BF63691A
:105390002362636A013363620024EC6603F056F90A
:1053A0003846314600F0CAFC204603B0F0BD52EA50
:1053B000030110D0094989680861CDE9002331460D
:1053C0002246384600F026FCEFE7002086F31188DD
:1053D000BFF36F8FE9E76FF02200F7E74C0C002076
:1053E0002DE9F341044617461E46EFF311881023BA
:1053F00083F31288BFF36F8FC368334A7BB1806831
:105400009168884219D057EA060318D188F31188A9
:10541000BFF36F8F6FF00F0002B0BDE8F0819168AD
:1054200091F90E100133E36093682161A36088F362
:105430001188BFF36F8F0020EEE72169F2E791F941
:105440000E1090F90E306FF07E029942A8BF1946F7
:105450009142B8BF11468B422DDD03F04CF8054652
:1054600022464146CDE90076184800F0D3FB0028DB
:10547000E1D0EFF31186102383F31288BFF36F8F0F
:10548000A068D0B1236821699C420AD04BB193F93E
:105490000E309942A8BF19466FF07E039942B8BFFB
:1054A000194603F028F840B13146084800F046FCA0
:1054B0006FF00A00B0E70025D2E7002DF4D186F3A3
:1054C0001188BFF36F8FF3E74C0C0020840C002091
:1054D000F8B583680546002B3FD0234A9268934273
:1054E0003ED1C368012B03D9013BC3600020F8BD46
:1054F000EFF31187102383F31288BFF36F8F0169D5
:10550000806802F0F8FF2C68AC4207D10023C5E99F
:10551000023387F31188BFF36F8FE7E7002CF5D0D4
:10552000D4E90032002613605A60637BC4E9006648
:1055300023F002036373A66004F1180003F059F925
:10554000AC6094F90E3020462B61E66603F07EF8DD
:105550003946064800F0F2FBC8E76FF01500C6E7D1
:105560004FF0FF30C3E700BF4C0C0020840C00203C
:1055700070B5EFF31186102383F31288BFF36F8F9A
:105580000468A0421AD0CCB1D4E9003200251360DF
:105590005A60637BC4E9005523F002036373A5607E
:1055A00004F1180003F025F92046E56603F04EF8F3
:1055B0003146BDE87040074800F0C0BBD0E9023278
:1055C0009A4218BF0133836086F31188BFF36F8F4F
:1055D00070BD00BF850C002013B5EFF311811024BE
:1055E00084F31288BFF36F8F846844B1013C8460F8
:1055F00081F31188BFF36F8F002002B010BD52EA13
:10560000030406D181F31188BFF36F8F6FF00F0091
:10561000F3E7CDE900230246014800F0FBFAECE78E
:10562000850C00202DE9F0410546EFF3118710238A
:1056300083F31288BFF36F8F00236FF00A081E46B2
:105640002C68A54216D0ACB1D4E9003213605A6080
:10565000637BC4E9006623F002036373A66004F170
:10566000180003F0C6F82046C4F86C8002F0EEFF84
:105670000123E5E70022AA602BB13946BDE8F041DD
:10568000044800F05BBB87F31188BFF36F8FBDE860
:10569000F08100BF850C002007B5074B4FF48062F6
:1056A000009306494FF0FF33054800F005F900204C
:1056B00003B05DF804FB00BFCC930008902E0020DF
:1056C000F00800202DE9FF41044610274C4EEFF36F
:1056D000118887F31288BFF36F8F656FF5B90221C8
:1056E00004F18C0002F022FF002865D004F184054B
:1056F00000220121284603F043F80028F8D10023B6
:105700004FF0FF3202934FF0FF334146CDE90023C3
:105710003C4804F17C0200F0CDFCD8E7A26F2B6876
:105720009542636708BFA367D4F88C3043F0020347
:10573000C4F88C30EB6823F0040343F00103EB6002
:105740006B6888F31188BFF36F8F28469847EFF393
:10575000118887F31288BFF36F8FEB68D80623F0A8
:10576000010236D4EA60EB689A0716D5306823F058
:105770000203EB6088B10021036870B14268954272
:1057800035D1036869BB72683360824200D17360AF
:10579000002340F8083BFFF7EBFED4F88C3023F0F1
:1057A0000203C4F88C3088F31188BFF36F8FDB05D8
:1057B0008DD400F039FB8AE7D4F88C30D9069ED519
:1057C000C4F88C0088F31188BFF36F8F04B0BDE874
:1057D000F08123F01103EB6005F11000FFF7C8FE24
:1057E000C1E70B607368834208BF7160D0E723B1E3
:1057F0001A68014618461346BFE71A46F9E700BF84
:105800006C0C0020860C0020F8B5C36804469A078B
:105810000F46C3F340062DD45B071BD40B680BB9AE
:1058200083680B60E368DD0742BFA36802263B6024
:105830003D6858BF0126002D39D01E4B9A682B6F4A
:105840009A420AD0D5F88C30D807C3F3800214D41A
:105850006FF0120600233B6024E002F0B2FED5F8A0
:105860008C300028F0D1D907C3F3C002F0D552B173
:105870005B0708D46FF00F06ECE7002AFAD1C3F3F8
:10588000C003002BF6D100232360AB6F63B9C5E9D9
:105890001D44284602F064FEE36843F00403E3601D
:1058A0003B68A3603046F8BD1C60AC67F1E76FF061
:1058B0001506CFE74C0C0020F0B50446002089B057
:1058C000C4E91D000E9D04F17C00C4E91F0004F131
:1058D0008400C4E921004DB32879002840F201106A
:1058E00008BF0120C4F88C0000204FF0FF364FF0B5
:1058F000FF37CDE90330CDE90100CDE90667204649
:105900000B4B009400F074F855B1296811B1204692
:1059100002F05DFE6B791BB1237B43F0010323731F
:10592000204600F001FB246709B0F0BD0120D9E753
:10593000C5560008F7B50C4616461D460190EFF314
:105940001187102383F31288BFF36F8F084602F08C
:10595000F8FD55EA060309D1204601A9FFF754FFD7
:1059600087F31188BFF36F8F03B0F0BDE368324651
:1059700043F00803E360019B0449A36204F11000B3
:105980002B4600F079FC0120EAE700BF6F85000894
:1059900001460148FFF7CEBFF00800207FB50C9EFE
:1059A00000F1580506730426C0E916550025044683
:1059B000467307320B9E22F0070286738E180A9AEE
:1059C000C0E906558560C5730292099A0192089A4A
:1059D00000923246FCF760FF044B65659B6803B19B
:1059E0005B6E3046636604B070BD00BF4C0C002097
:1059F000F0B5002587B00595109DDDE91276049578
:105A00000F9D044603950E9D02950D9D01950C9DDD
:105A10000095FFF7C3FFB6F1FF3F08BFB7F1FF3FA7
:105A200005D056EA070305D1204600F07DFA20464E
:105A300007B0F0BD3A46334604F11800014900F0C2
:105A40001BFCF4E7C786000840F2011310B50446BA
:105A5000838100F0E1FD014B9C6010BD4C0C0020E7
:105A60006FF00A01084A9368D966084998664B683E
:105A700043F080534B60002383F31188BFF36F8F93
:105A80009368D86E704700BF4C0C002000ED00E01A
:105A900070B590F90D20437B002A36DBD90634D14E
:105AA0001B4C63F07F032246437352F8183FE169B1
:105AB000934207D1C0E900210860E06111E09942FA
:105AC000F8D01B68002BF5D090F90E5093F90E60BA
:105AD000B542F4D0AE42F2DD5968C0E90031086049
